{
  "contractName": "RBMig",
  "abi": [
    {
      "inputs": [
        {
          "internalType": "string",
          "name": "_kid",
          "type": "string"
        },
        {
          "internalType": "string",
          "name": "_aadhar",
          "type": "string"
        },
        {
          "internalType": "string",
          "name": "_pid",
          "type": "string"
        },
        {
          "internalType": "bool",
          "name": "__uh",
          "type": "bool"
        }
      ],
      "name": "createKhatauniEntry",
      "outputs": [],
      "stateMutability": "nonpayable",
      "type": "function"
    },
    {
      "inputs": [
        {
          "internalType": "string",
          "name": "_plotid",
          "type": "string"
        },
        {
          "internalType": "string",
          "name": "_plotinfo",
          "type": "string"
        },
        {
          "internalType": "bool",
          "name": "__uh",
          "type": "bool"
        }
      ],
      "name": "createPlotEntry",
      "outputs": [],
      "stateMutability": "nonpayable",
      "type": "function"
    },
    {
      "inputs": [
        {
          "internalType": "string",
          "name": "_kid",
          "type": "string"
        },
        {
          "internalType": "string",
          "name": "_kid_new",
          "type": "string"
        },
        {
          "internalType": "bool",
          "name": "__uh",
          "type": "bool"
        }
      ],
      "name": "updateKhatauniKid",
      "outputs": [],
      "stateMutability": "nonpayable",
      "type": "function"
    },
    {
      "inputs": [
        {
          "internalType": "string",
          "name": "_kid",
          "type": "string"
        },
        {
          "internalType": "string",
          "name": "_aadhar",
          "type": "string"
        },
        {
          "internalType": "bool",
          "name": "__uh",
          "type": "bool"
        }
      ],
      "name": "updateKhatauniAadhar",
      "outputs": [],
      "stateMutability": "nonpayable",
      "type": "function"
    },
    {
      "inputs": [
        {
          "internalType": "string",
          "name": "_kid",
          "type": "string"
        },
        {
          "internalType": "string",
          "name": "_pid",
          "type": "string"
        },
        {
          "internalType": "bool",
          "name": "__uh",
          "type": "bool"
        }
      ],
      "name": "updateKhatauniPid",
      "outputs": [],
      "stateMutability": "nonpayable",
      "type": "function"
    },
    {
      "inputs": [
        {
          "internalType": "string",
          "name": "_plotid",
          "type": "string"
        },
        {
          "internalType": "string",
          "name": "_plotid_new",
          "type": "string"
        },
        {
          "internalType": "bool",
          "name": "__uh",
          "type": "bool"
        }
      ],
      "name": "updatePlotPlotid",
      "outputs": [],
      "stateMutability": "nonpayable",
      "type": "function"
    },
    {
      "inputs": [
        {
          "internalType": "string",
          "name": "_plotid",
          "type": "string"
        },
        {
          "internalType": "string",
          "name": "_plotinfo",
          "type": "string"
        },
        {
          "internalType": "bool",
          "name": "__uh",
          "type": "bool"
        }
      ],
      "name": "updatePlotPlotinfo",
      "outputs": [],
      "stateMutability": "nonpayable",
      "type": "function"
    },
    {
      "inputs": [
        {
          "internalType": "string",
          "name": "_kid",
          "type": "string"
        }
      ],
      "name": "viewKhatauniRecord",
      "outputs": [
        {
          "internalType": "string",
          "name": "kid",
          "type": "string"
        },
        {
          "internalType": "string",
          "name": "aadhar",
          "type": "string"
        },
        {
          "internalType": "string",
          "name": "pid",
          "type": "string"
        }
      ],
      "stateMutability": "view",
      "type": "function",
      "constant": true
    },
    {
      "inputs": [
        {
          "internalType": "string",
          "name": "_plotid",
          "type": "string"
        }
      ],
      "name": "viewPlotRecord",
      "outputs": [
        {
          "internalType": "string",
          "name": "plotid",
          "type": "string"
        },
        {
          "internalType": "string",
          "name": "plotinfo",
          "type": "string"
        }
      ],
      "stateMutability": "view",
      "type": "function",
      "constant": true
    },
    {
      "inputs": [
        {
          "internalType": "string",
          "name": "_kid",
          "type": "string"
        },
        {
          "internalType": "bool",
          "name": "__uh",
          "type": "bool"
        }
      ],
      "name": "deleteKhatauniRecord",
      "outputs": [],
      "stateMutability": "nonpayable",
      "type": "function"
    },
    {
      "inputs": [
        {
          "internalType": "string",
          "name": "_plotid",
          "type": "string"
        },
        {
          "internalType": "bool",
          "name": "__uh",
          "type": "bool"
        }
      ],
      "name": "deletePlotRecord",
      "outputs": [],
      "stateMutability": "nonpayable",
      "type": "function"
    },
    {
      "inputs": [
        {
          "internalType": "string",
          "name": "_kid",
          "type": "string"
        }
      ],
      "name": "rollbackDeleteKhatauniRecord",
      "outputs": [],
      "stateMutability": "nonpayable",
      "type": "function"
    },
    {
      "inputs": [
        {
          "internalType": "string",
          "name": "_plotid",
          "type": "string"
        }
      ],
      "name": "rollbackDeletePlotRecord",
      "outputs": [],
      "stateMutability": "nonpayable",
      "type": "function"
    },
    {
      "inputs": [],
      "name": "revertHash",
      "outputs": [],
      "stateMutability": "nonpayable",
      "type": "function"
    },
    {
      "inputs": [],
      "name": "getHash",
      "outputs": [
        {
          "internalType": "bytes32",
          "name": "",
          "type": "bytes32"
        }
      ],
      "stateMutability": "view",
      "type": "function",
      "constant": true
    }
  ],
  "bytecode": "0x608060405234801561001057600080fd5b506126bb806100206000396000f3fe608060405234801561001057600080fd5b50600436106100f55760003560e01c8063a3e5251711610097578063e2c4d34e11610066578063e2c4d34e14610245578063e979ae0914610277578063e9e709cf14610293578063fa4bf630146102af576100f5565b8063a3e52517146101d3578063b7c022eb146101ef578063d13319c41461020b578063dcf278f014610229576100f5565b80636739cb4f116100d35780636739cb4f1461014e578063772db7221461017f578063844d31e91461019b57806394905649146101b7576100f5565b806315c2a301146100fa5780632503238a146101165780633d5c88f314610132575b600080fd5b610114600480360381019061010f9190611956565b6102b9565b005b610130600480360381019061012b91906119d7565b61034c565b005b61014c600480360381019061014791906119d7565b61043f565b005b61016860048036038101906101639190611956565b610532565b604051610176929190611aea565b60405180910390f35b610199600480360381019061019491906119d7565b610707565b005b6101b560048036038101906101b09190611b21565b610886565b005b6101d160048036038101906101cc91906119d7565b6109db565b005b6101ed60048036038101906101e89190611b21565b610bdd565b005b610209600480360381019061020491906119d7565b610d27565b005b610213610f95565b6040516102209190611b96565b60405180910390f35b610243600480360381019061023e9190611956565b610f9e565b005b61025f600480360381019061025a9190611956565b610fdb565b60405161026e93929190611bb1565b60405180910390f35b610291600480360381019061028c9190611bfd565b611260565b005b6102ad60048036038101906102a891906119d7565b611412565b005b6102b76116c1565b005b600160056002836040516102cd9190611cf4565b90815260200160405180910390206002016040516102eb9190611dff565b908152602001604051809103902060008282546103089190611e4f565b9250508190555060016002826040516103219190611cf4565b908152602001604051809103902060030160006101000a81548160ff02191690831515021790555050565b600115156002846040516103609190611cf4565b908152602001604051809103902060030160009054906101000a900460ff161515146103c1576040517f08c379a00000000000000000000000000000000000000000000000000000000081526004016103b890611ef1565b60405180910390fd5b816002846040516103d29190611cf4565b908152602001604051809103902060010190805190602001906103f69291906116cc565b50801561043a57600054600181905550600054838360405160200161041d93929190611fca565b604051602081830303815290604052805190602001206000819055505b505050565b600115156003846040516104539190611cf4565b908152602001604051809103902060020160009054906101000a900460ff161515146104b4576040517f08c379a00000000000000000000000000000000000000000000000000000000081526004016104ab90611ef1565b60405180910390fd5b816003846040516104c59190611cf4565b908152602001604051809103902060010190805190602001906104e99291906116cc565b50801561052d57600054600181905550600054838360405160200161051093929190612077565b604051602081830303815290604052805190602001206000819055505b505050565b606080600115156003846040516105499190611cf4565b908152602001604051809103902060020160009054906101000a900460ff161515146105aa576040517f08c379a00000000000000000000000000000000000000000000000000000000081526004016105a190612124565b60405180910390fd5b6003836040516105ba9190611cf4565b908152602001604051809103902060000180546105d690611d3a565b80601f016020809104026020016040519081016040528092919081815260200182805461060290611d3a565b801561064f5780601f106106245761010080835404028352916020019161064f565b820191906000526020600020905b81548152906001019060200180831161063257829003601f168201915b505050505091506003836040516106669190611cf4565b9081526020016040518091039020600101805461068290611d3a565b80601f01602080910402602001604051908101604052809291908181526020018280546106ae90611d3a565b80156106fb5780601f106106d0576101008083540402835291602001916106fb565b820191906000526020600020905b8154815290600101906020018083116106de57829003601f168201915b50505050509050915091565b6001151560028460405161071b9190611cf4565b908152602001604051809103902060030160009054906101000a900460ff1615151461077c576040517f08c379a000000000000000000000000000000000000000000000000000000000815260040161077390611ef1565b60405180910390fd5b600160058360405161078e9190611cf4565b908152602001604051809103902060008282546107ab9190611e4f565b92505081905550600160056002856040516107c69190611cf4565b90815260200160405180910390206002016040516107e49190611dff565b908152602001604051809103902060008282546108019190612144565b92505081905550816002846040516108199190611cf4565b9081526020016040518091039020600201908051906020019061083d9291906116cc565b508015610881576000546001819055506000548383604051602001610864939291906121c4565b604051602081830303815290604052805190602001206000819055505b505050565b6001151560038360405161089a9190611cf4565b908152602001604051809103902060020160009054906101000a900460ff161515146108fb576040517f08c379a00000000000000000000000000000000000000000000000000000000081526004016108f290612124565b60405180910390fd5b600060058360405161090d9190611cf4565b9081526020016040518091039020541461095c576040517f08c379a000000000000000000000000000000000000000000000000000000000815260040161095390612271565b60405180910390fd5b600060038360405161096e9190611cf4565b908152602001604051809103902060020160006101000a81548160ff02191690831515021790555080156109d757600054600181905550600054826040516020016109ba9291906122dd565b604051602081830303815290604052805190602001206000819055505b5050565b600015156003846040516109ef9190611cf4565b908152602001604051809103902060020160009054906101000a900460ff16151514610a50576040517f08c379a0000000000000000000000000000000000000000000000000000000008152600401610a4790612367565b60405180910390fd5b604051806060016040528084815260200183815260200160011515815250600384604051610a7e9190611cf4565b90815260200160405180910390206000820151816000019080519060200190610aa89291906116cc565b506020820151816001019080519060200190610ac59291906116cc565b5060408201518160020160006101000a81548160ff021916908315150217905550905050600383604051610af99190611cf4565b9081526020016040518091039020600484604051610b179190611cf4565b90815260200160405180910390206000820181600001908054610b3990611d3a565b610b44929190611752565b506001820181600101908054610b5990611d3a565b610b64929190611752565b506002820160009054906101000a900460ff168160020160006101000a81548160ff0219169083151502179055509050508015610bd8576000546001819055506000548383604051602001610bbb93929190612387565b604051602081830303815290604052805190602001206000819055505b505050565b60011515600283604051610bf19190611cf4565b908152602001604051809103902060030160009054906101000a900460ff16151514610c52576040517f08c379a0000000000000000000000000000000000000000000000000000000008152600401610c4990612124565b60405180910390fd5b60016005600284604051610c669190611cf4565b9081526020016040518091039020600201604051610c849190611dff565b90815260200160405180910390206000828254610ca19190612144565b925050819055506000600283604051610cba9190611cf4565b908152602001604051809103902060030160006101000a81548160ff0219169083151502179055508015610d235760005460018190555060005482604051602001610d0692919061241e565b604051602081830303815290604052805190602001206000819055505b5050565b60011515600284604051610d3b9190611cf4565b908152602001604051809103902060030160009054906101000a900460ff16151514610d9c576040517f08c379a0000000000000000000000000000000000000000000000000000000008152600401610d9390612124565b60405180910390fd5b60001515600283604051610db09190611cf4565b908152602001604051809103902060030160009054906101000a900460ff16151514610e11576040517f08c379a0000000000000000000000000000000000000000000000000000000008152600401610e08906124a8565b60405180910390fd5b600283604051610e219190611cf4565b9081526020016040518091039020600283604051610e3f9190611cf4565b90815260200160405180910390206000820181600001908054610e6190611d3a565b610e6c929190611752565b506001820181600101908054610e8190611d3a565b610e8c929190611752565b506002820181600201908054610ea190611d3a565b610eac929190611752565b506003820160009054906101000a900460ff168160030160006101000a81548160ff02191690831515021790555090505081600283604051610eee9190611cf4565b90815260200160405180910390206000019080519060200190610f129291906116cc565b506000600284604051610f259190611cf4565b908152602001604051809103902060030160006101000a81548160ff0219169083151502179055508015610f90576000546001819055506000548383604051602001610f7393929190612514565b604051602081830303815290604052805190602001206000819055505b505050565b60008054905090565b6001600382604051610fb09190611cf4565b908152602001604051809103902060020160006101000a81548160ff02191690831515021790555050565b606080606060011515600285604051610ff49190611cf4565b908152602001604051809103902060030160009054906101000a900460ff16151514611055576040517f08c379a000000000000000000000000000000000000000000000000000000000815260040161104c90612124565b60405180910390fd5b6002846040516110659190611cf4565b9081526020016040518091039020600001805461108190611d3a565b80601f01602080910402602001604051908101604052809291908181526020018280546110ad90611d3a565b80156110fa5780601f106110cf576101008083540402835291602001916110fa565b820191906000526020600020905b8154815290600101906020018083116110dd57829003601f168201915b505050505092506002846040516111119190611cf4565b9081526020016040518091039020600101805461112d90611d3a565b80601f016020809104026020016040519081016040528092919081815260200182805461115990611d3a565b80156111a65780601f1061117b576101008083540402835291602001916111a6565b820191906000526020600020905b81548152906001019060200180831161118957829003601f168201915b505050505091506002846040516111bd9190611cf4565b908152602001604051809103902060020180546111d990611d3a565b80601f016020809104026020016040519081016040528092919081815260200182805461120590611d3a565b80156112525780601f1061122757610100808354040283529160200191611252565b820191906000526020600020905b81548152906001019060200180831161123557829003601f168201915b505050505090509193909250565b600015156002856040516112749190611cf4565b908152602001604051809103902060030160009054906101000a900460ff161515146112d5576040517f08c379a00000000000000000000000000000000000000000000000000000000081526004016112cc90612367565b60405180910390fd5b60016005836040516112e79190611cf4565b908152602001604051809103902060008282546113049190611e4f565b9250508190555060405180608001604052808581526020018481526020018381526020016001151581525060028560405161133f9190611cf4565b908152602001604051809103902060008201518160000190805190602001906113699291906116cc565b5060208201518160010190805190602001906113869291906116cc565b5060408201518160020190805190602001906113a39291906116cc565b5060608201518160030160006101000a81548160ff021916908315150217905550905050801561140c576000546001819055506000548484846040516020016113ef9493929190612575565b604051602081830303815290604052805190602001206000819055505b50505050565b600115156003846040516114269190611cf4565b908152602001604051809103902060020160009054906101000a900460ff16151514611487576040517f08c379a000000000000000000000000000000000000000000000000000000000815260040161147e90612124565b60405180910390fd5b6000151560038360405161149b9190611cf4565b908152602001604051809103902060020160009054906101000a900460ff161515146114fc576040517f08c379a00000000000000000000000000000000000000000000000000000000081526004016114f3906124a8565b60405180910390fd5b600060058460405161150e9190611cf4565b9081526020016040518091039020541461155d576040517f08c379a000000000000000000000000000000000000000000000000000000000815260040161155490612271565b60405180910390fd5b60038360405161156d9190611cf4565b908152602001604051809103902060038360405161158b9190611cf4565b908152602001604051809103902060008201816000019080546115ad90611d3a565b6115b8929190611752565b5060018201816001019080546115cd90611d3a565b6115d8929190611752565b506002820160009054906101000a900460ff168160020160006101000a81548160ff0219169083151502179055509050508160038360405161161a9190611cf4565b9081526020016040518091039020600001908051906020019061163e9291906116cc565b5060006003846040516116519190611cf4565b908152602001604051809103902060020160006101000a81548160ff02191690831515021790555080156116bc57600054600181905550600054838360405160200161169f93929190612624565b604051602081830303815290604052805190602001206000819055505b505050565b600154600081905550565b8280546116d890611d3a565b90600052602060002090601f0160209004810192826116fa5760008555611741565b82601f1061171357805160ff1916838001178555611741565b82800160010185558215611741579182015b82811115611740578251825591602001919060010190611725565b5b50905061174e91906117df565b5090565b82805461175e90611d3a565b90600052602060002090601f01602090048101928261178057600085556117ce565b82601f1061179157805485556117ce565b828001600101855582156117ce57600052602060002091601f016020900482015b828111156117cd5782548255916001019190600101906117b2565b5b5090506117db91906117df565b5090565b5b808211156117f85760008160009055506001016117e0565b5090565b6000604051905090565b600080fd5b600080fd5b600080fd5b600080fd5b6000601f19601f8301169050919050565b7f4e487b7100000000000000000000000000000000000000000000000000000000600052604160045260246000fd5b6118638261181a565b810181811067ffffffffffffffff821117156118825761188161182b565b5b80604052505050565b60006118956117fc565b90506118a1828261185a565b919050565b600067ffffffffffffffff8211156118c1576118c061182b565b5b6118ca8261181a565b9050602081019050919050565b82818337600083830152505050565b60006118f96118f4846118a6565b61188b565b90508281526020810184848401111561191557611914611815565b5b6119208482856118d7565b509392505050565b600082601f83011261193d5761193c611810565b5b813561194d8482602086016118e6565b91505092915050565b60006020828403121561196c5761196b611806565b5b600082013567ffffffffffffffff81111561198a5761198961180b565b5b61199684828501611928565b91505092915050565b60008115159050919050565b6119b48161199f565b81146119bf57600080fd5b50565b6000813590506119d1816119ab565b92915050565b6000806000606084860312156119f0576119ef611806565b5b600084013567ffffffffffffffff811115611a0e57611a0d61180b565b5b611a1a86828701611928565b935050602084013567ffffffffffffffff811115611a3b57611a3a61180b565b5b611a4786828701611928565b9250506040611a58868287016119c2565b9150509250925092565b600081519050919050565b600082825260208201905092915050565b60005b83811015611a9c578082015181840152602081019050611a81565b83811115611aab576000848401525b50505050565b6000611abc82611a62565b611ac68185611a6d565b9350611ad6818560208601611a7e565b611adf8161181a565b840191505092915050565b60006040820190508181036000830152611b048185611ab1565b90508181036020830152611b188184611ab1565b90509392505050565b60008060408385031215611b3857611b37611806565b5b600083013567ffffffffffffffff811115611b5657611b5561180b565b5b611b6285828601611928565b9250506020611b73858286016119c2565b9150509250929050565b6000819050919050565b611b9081611b7d565b82525050565b6000602082019050611bab6000830184611b87565b92915050565b60006060820190508181036000830152611bcb8186611ab1565b90508181036020830152611bdf8185611ab1565b90508181036040830152611bf38184611ab1565b9050949350505050565b60008060008060808587031215611c1757611c16611806565b5b600085013567ffffffffffffffff811115611c3557611c3461180b565b5b611c4187828801611928565b945050602085013567ffffffffffffffff811115611c6257611c6161180b565b5b611c6e87828801611928565b935050604085013567ffffffffffffffff811115611c8f57611c8e61180b565b5b611c9b87828801611928565b9250506060611cac878288016119c2565b91505092959194509250565b600081905092915050565b6000611cce82611a62565b611cd88185611cb8565b9350611ce8818560208601611a7e565b80840191505092915050565b6000611d008284611cc3565b915081905092915050565b7f4e487b7100000000000000000000000000000000000000000000000000000000600052602260045260246000fd5b60006002820490506001821680611d5257607f821691505b602082108103611d6557611d64611d0b565b5b50919050565b60008190508160005260206000209050919050565b60008154611d8d81611d3a565b611d978186611cb8565b94506001821660008114611db25760018114611dc357611df6565b60ff19831686528186019350611df6565b611dcc85611d6b565b60005b83811015611dee57815481890152600182019150602081019050611dcf565b838801955050505b50505092915050565b6000611e0b8284611d80565b915081905092915050565b6000819050919050565b7f4e487b7100000000000000000000000000000000000000000000000000000000600052601160045260246000fd5b6000611e5a82611e16565b9150611e6583611e16565b9250827fffffffffffffffffffffffffffffffffffffffffffffffffffffffffffffffff03821115611e9a57611e99611e20565b5b828201905092915050565b7f417474726962206e6f7420666f756e6400000000000000000000000000000000600082015250565b6000611edb601083611a6d565b9150611ee682611ea5565b602082019050919050565b60006020820190508181036000830152611f0a81611ece565b9050919050565b6000819050919050565b611f2c611f2782611b7d565b611f11565b82525050565b7f5f785f0000000000000000000000000000000000000000000000000000000000600082015250565b6000611f68600383611cb8565b9150611f7382611f32565b600382019050919050565b7f75705f6b68617461756e695f6161646861720000000000000000000000000000600082015250565b6000611fb4601283611cb8565b9150611fbf82611f7e565b601282019050919050565b6000611fd68286611f1b565b602082019150611fe582611f5b565b9150611ff082611fa7565b9150611ffb82611f5b565b91506120078285611cc3565b915061201282611f5b565b915061201e8284611cc3565b9150819050949350505050565b7f75705f706c6f745f706c6f74696e666f00000000000000000000000000000000600082015250565b6000612061601083611cb8565b915061206c8261202b565b601082019050919050565b60006120838286611f1b565b60208201915061209282611f5b565b915061209d82612054565b91506120a882611f5b565b91506120b48285611cc3565b91506120bf82611f5b565b91506120cb8284611cc3565b9150819050949350505050565b7f504b206e6f7420666f756e640000000000000000000000000000000000000000600082015250565b600061210e600c83611a6d565b9150612119826120d8565b602082019050919050565b6000602082019050818103600083015261213d81612101565b9050919050565b600061214f82611e16565b915061215a83611e16565b92508282101561216d5761216c611e20565b5b828203905092915050565b7f75705f6b68617461756e695f7069640000000000000000000000000000000000600082015250565b60006121ae600f83611cb8565b91506121b982612178565b600f82019050919050565b60006121d08286611f1b565b6020820191506121df82611f5b565b91506121ea826121a1565b91506121f582611f5b565b91506122018285611cc3565b915061220c82611f5b565b91506122188284611cc3565b9150819050949350505050565b7f464b20646570656e64656e63792076696f6c6174696f6e000000000000000000600082015250565b600061225b601783611a6d565b915061226682612225565b602082019050919050565b6000602082019050818103600083015261228a8161224e565b9050919050565b7f64656c5f706c6f74000000000000000000000000000000000000000000000000600082015250565b60006122c7600883611cb8565b91506122d282612291565b600882019050919050565b60006122e98285611f1b565b6020820191506122f882611f5b565b9150612303826122ba565b915061230f8284611cc3565b91508190509392505050565b7f504b206e6f7420756e6971756500000000000000000000000000000000000000600082015250565b6000612351600d83611a6d565b915061235c8261231b565b602082019050919050565b6000602082019050818103600083015261238081612344565b9050919050565b60006123938286611f1b565b6020820191506123a282611f5b565b91506123ae8285611cc3565b91506123b982611f5b565b91506123c58284611cc3565b9150819050949350505050565b7f64656c5f6b68617461756e690000000000000000000000000000000000000000600082015250565b6000612408600c83611cb8565b9150612413826123d2565b600c82019050919050565b600061242a8285611f1b565b60208201915061243982611f5b565b9150612444826123fb565b91506124508284611cc3565b91508190509392505050565b7f6e657720504b2065786973747300000000000000000000000000000000000000600082015250565b6000612492600d83611a6d565b915061249d8261245c565b602082019050919050565b600060208201905081810360008301526124c181612485565b9050919050565b7f75705f6b68617461756e695f6b69640000000000000000000000000000000000600082015250565b60006124fe600f83611cb8565b9150612509826124c8565b600f82019050919050565b60006125208286611f1b565b60208201915061252f82611f5b565b915061253a826124f1565b915061254582611f5b565b91506125518285611cc3565b915061255c82611f5b565b91506125688284611cc3565b9150819050949350505050565b60006125818287611f1b565b60208201915061259082611f5b565b915061259c8286611cc3565b91506125a782611f5b565b91506125b38285611cc3565b91506125be82611f5b565b91506125ca8284611cc3565b915081905095945050505050565b7f75705f706c6f745f706c6f746964000000000000000000000000000000000000600082015250565b600061260e600e83611cb8565b9150612619826125d8565b600e82019050919050565b60006126308286611f1b565b60208201915061263f82611f5b565b915061264a82612601565b915061265582611f5b565b91506126618285611cc3565b915061266c82611f5b565b91506126788284611cc3565b915081905094935050505056fea264697066735822122052c46da5e13a1a9366cf005fd593e72c5b3a52e239141e8e983a9f3401675be764736f6c634300080d0033",
  "immutableReferences": {},
  "source": "// SPDX-License-Identifier: GPL-3.0\r\npragma solidity >=0.8.2 <0.9.0;\r\ncontract RBMig {\r\n \r\nbytes32 curr_hash ;\r\nbytes32 prev_hash ;\r\nstruct Khatauni{\r\nstring kid;\r\nstring aadhar;\r\nstring pid;\r\nbool struct_valid_check;\r\n}\r\nstruct Plot{\r\nstring plotid;\r\nstring plotinfo;\r\nbool struct_valid_check;\r\n}\r\nmapping(string => Khatauni) kidKhatauniMapping;\r\nmapping(string => Plot) plotidPlotMapping;\r\nmapping(string => Plot) plotidPlotFkMapping;\r\nmapping(string => uint256) plotidPlotFkCtMapping;\r\n\r\nfunction createKhatauniEntry(\r\nstring memory _kid, string memory _aadhar, string memory _pid, bool __uh) external {\r\nrequire(kidKhatauniMapping[_kid].struct_valid_check == false, \"PK not unique\");\r\nplotidPlotFkCtMapping[_pid] += 1;\r\n\r\nkidKhatauniMapping[_kid]=Khatauni({kid: _kid,\r\naadhar: _aadhar,\r\npid: _pid,\r\nstruct_valid_check:true});\r\n\r\n    if(__uh){\r\n    prev_hash = curr_hash;\r\n    curr_hash =  keccak256(abi.encodePacked(curr_hash,'_x_' ,_kid , '_x_' , _aadhar , '_x_' , _pid));\r\n}\r\n\r\n}\r\n\r\nfunction createPlotEntry(\r\nstring memory _plotid, string memory _plotinfo, bool __uh) external {\r\nrequire(plotidPlotMapping[_plotid].struct_valid_check == false, \"PK not unique\");\r\n\r\nplotidPlotMapping[_plotid]=Plot({plotid: _plotid,\r\nplotinfo: _plotinfo,\r\nstruct_valid_check:true});\r\nplotidPlotFkMapping[_plotid]=plotidPlotMapping[_plotid];\r\n\r\n    if(__uh){\r\n    prev_hash = curr_hash;\r\n    curr_hash =  keccak256(abi.encodePacked(curr_hash,'_x_' ,_plotid , '_x_' , _plotinfo));\r\n}\r\n\r\n}\r\nfunction updateKhatauniKid(string memory _kid,string memory _kid_new, bool __uh) external {\r\nrequire(kidKhatauniMapping[_kid].struct_valid_check == true, \"PK not found\");\r\nrequire(kidKhatauniMapping[_kid_new].struct_valid_check == false, \"new PK exists\");\r\nkidKhatauniMapping[_kid_new] = kidKhatauniMapping[_kid];\r\nkidKhatauniMapping[_kid_new].kid = _kid_new;\r\nkidKhatauniMapping[_kid].struct_valid_check = false;\r\n\r\n    if(__uh){\r\n    prev_hash = curr_hash;\r\n    curr_hash =  keccak256(abi.encodePacked(curr_hash, '_x_', 'up_khatauni_kid','_x_' ,_kid , '_x_' , _kid_new));\r\n}\r\n}\r\nfunction updateKhatauniAadhar(string memory _kid,string memory _aadhar, bool __uh) external {\r\nrequire(kidKhatauniMapping[_kid].struct_valid_check == true, \"Attrib not found\");\r\nkidKhatauniMapping[_kid].aadhar=_aadhar;\r\n    if(__uh){\r\n    prev_hash = curr_hash;\r\n    curr_hash =  keccak256(abi.encodePacked(curr_hash, '_x_', 'up_khatauni_aadhar','_x_' ,_kid , '_x_' , _aadhar));\r\n}\r\n}\r\nfunction updateKhatauniPid(string memory _kid,string memory _pid, bool __uh) external {\r\nrequire(kidKhatauniMapping[_kid].struct_valid_check == true, \"Attrib not found\");\r\nplotidPlotFkCtMapping[_pid] += 1;\r\nplotidPlotFkCtMapping[kidKhatauniMapping[_kid].pid] -= 1;\r\nkidKhatauniMapping[_kid].pid=_pid;\r\n    if(__uh){\r\n    prev_hash = curr_hash;\r\n    curr_hash =  keccak256(abi.encodePacked(curr_hash, '_x_', 'up_khatauni_pid','_x_' ,_kid , '_x_' , _pid));\r\n}\r\n}\r\n\r\nfunction updatePlotPlotid(string memory _plotid,string memory _plotid_new, bool __uh) external {\r\nrequire(plotidPlotMapping[_plotid].struct_valid_check == true, \"PK not found\");\r\nrequire(plotidPlotMapping[_plotid_new].struct_valid_check == false, \"new PK exists\");\r\nrequire(plotidPlotFkCtMapping[_plotid] == 0, \"FK dependency violation\");\r\nplotidPlotMapping[_plotid_new] = plotidPlotMapping[_plotid];\r\nplotidPlotMapping[_plotid_new].plotid = _plotid_new;\r\nplotidPlotMapping[_plotid].struct_valid_check = false;\r\n\r\n    if(__uh){\r\n    prev_hash = curr_hash;\r\n    curr_hash =  keccak256(abi.encodePacked(curr_hash, '_x_', 'up_plot_plotid','_x_' ,_plotid , '_x_' , _plotid_new));\r\n}\r\n}\r\nfunction updatePlotPlotinfo(string memory _plotid,string memory _plotinfo, bool __uh) external {\r\nrequire(plotidPlotMapping[_plotid].struct_valid_check == true, \"Attrib not found\");\r\nplotidPlotMapping[_plotid].plotinfo=_plotinfo;\r\n    if(__uh){\r\n    prev_hash = curr_hash;\r\n    curr_hash =  keccak256(abi.encodePacked(curr_hash, '_x_', 'up_plot_plotinfo','_x_' ,_plotid , '_x_' , _plotinfo));\r\n}\r\n}\r\n\r\nfunction viewKhatauniRecord(string memory _kid)external view returns(string memory kid, string memory aadhar, string memory pid){\r\nrequire(kidKhatauniMapping[_kid].struct_valid_check == true, \"PK not found\");\r\nkid=kidKhatauniMapping[_kid].kid;\r\naadhar=kidKhatauniMapping[_kid].aadhar;\r\npid=kidKhatauniMapping[_kid].pid;\r\n}\r\nfunction viewPlotRecord(string memory _plotid)external view returns(string memory plotid, string memory plotinfo){\r\nrequire(plotidPlotMapping[_plotid].struct_valid_check == true, \"PK not found\");\r\nplotid=plotidPlotMapping[_plotid].plotid;\r\nplotinfo=plotidPlotMapping[_plotid].plotinfo;\r\n}\r\nfunction deleteKhatauniRecord(string memory _kid, bool __uh)external {\r\nrequire(kidKhatauniMapping[_kid].struct_valid_check == true, \"PK not found\");\r\nplotidPlotFkCtMapping[kidKhatauniMapping[_kid].pid] -= 1;\r\nkidKhatauniMapping[_kid].struct_valid_check = false;\r\n\r\n    if(__uh){\r\n    prev_hash = curr_hash;\r\n    curr_hash =  keccak256(abi.encodePacked(curr_hash, '_x_', 'del_khatauni',_kid));\r\n}\r\n}\r\nfunction deletePlotRecord(string memory _plotid, bool __uh)external {\r\nrequire(plotidPlotMapping[_plotid].struct_valid_check == true, \"PK not found\");\r\nrequire(plotidPlotFkCtMapping[_plotid] == 0, \"FK dependency violation\");\r\nplotidPlotMapping[_plotid].struct_valid_check = false;\r\n\r\n    if(__uh){\r\n    prev_hash = curr_hash;\r\n    curr_hash =  keccak256(abi.encodePacked(curr_hash, '_x_', 'del_plot',_plotid));\r\n}\r\n}\r\nfunction rollbackDeleteKhatauniRecord(string memory _kid)external {\r\nplotidPlotFkCtMapping[kidKhatauniMapping[_kid].pid] += 1;\r\nkidKhatauniMapping[_kid].struct_valid_check = true;\r\n}\r\nfunction rollbackDeletePlotRecord(string memory _plotid)external {\r\nplotidPlotMapping[_plotid].struct_valid_check = true;\r\n}\r\nfunction revertHash()external {\r\n     curr_hash = prev_hash;\r\n}function getHash() public view returns (bytes32) {\r\nreturn curr_hash;\r\n    }\r\n}\r\n\r\n",
  "sourcePath": "C:\\Users\\yugam\\Documents\\xyx\\project_x\\stb\\contracts\\RBMig.sol",
  "compiler": {
    "name": "solc",
    "version": "0.8.13+commit.abaa5c0e.Emscripten.clang"
  },
  "schemaVersion": "3.4.16",
  "updatedAt": "2024-05-25T17:20:49.728Z",
  "networkType": "ethereum",
  "devdoc": {
    "kind": "dev",
    "methods": {},
    "version": 1
  },
  "userdoc": {
    "kind": "user",
    "methods": {},
    "version": 1
  }
}